:1000000012C02CC02BC02AC029C028C027C026C0BF
:1000100025C024C023C022C021C020C01FC01EC0D4
:100020001DC01CC01BC011241FBECFE5D4E0DEBF25
:10003000CDBF10E0A0E6B0E0E6E2FCE002C0059033
:100040000D92A837B107D9F710E0A8E7B0E001C0DA
:100050001D92AB38B107E1F7FFD0E4C5D1CF929A3A
:1000600000C092980895CF93DF93662311F0909A81
:1000700001C0909891988C9A8D9A8E9A8F9A9798A1
:1000800096989598949887FD979AC82FDD27C6FD76
:10009000969AC5FD959AC4FD949AE1DF9798969833
:1000A00095989498C3FD979AC2FD969AC1FD959A2A
:1000B000C0FD949AD4DF949A959A969A979ADF9174
:1000C000CF910895882311F0909A01C09098919A49
:1000D0008C988D988E988F98929A00C0849B02C0BD
:1000E00080E101C080E0859980628699806487996B
:1000F0008068929800C0929A00C084998160859926
:10010000826086998460879988609298992708957B
:1001100080E0D8DF87FDFCCF00C080E0D3DF9927E7
:1001200008951F93182FF4DF60E0812F9CDF1F914B
:1001300008951F93182FECDF61E0812F94DF1F914A
:100140000895662311F4805801C08054EADF0895B1
:10015000DFDF9927089581E0E4DF089582E0E1DFA1
:1001600008951F93182FD4DF1A3041F4803410F40F
:1001700080E401C080E08058D4DF03C061E0812FBB
:1001800072DF1F910895CF93DF93EC0101C0E9DF87
:1001900089918823E1F7DF91CF910895CF93DF9381
:1001A000EC0101C0DEDFFE01219684918823D1F7A6
:1001B000DF91CF910895FF920F931F93F82E889AA5
:1001C000899A8A9A8C9A8D9A8E9A8F9A80EA9FE061
:1001D0000197F1F7959A949A42DF80EE94E00197A7
:1001E000F1F73DDF00E110E0C8010197F1F737DFDB
:1001F000C8010197F1F7949832DFC8010197F1F730
:1002000088E28FDF88E08DDFA6DF86E08ADF8F2D32
:1002100088DF1F910F91FF90089586E886B90895B1
:1002200090E697B997B1982B97B9369A3699FECF41
:1002300085B19927089597B1987F8770982B97B9C2
:10024000369A349BFECF349A84B195B1089580E4F8
:1002500087B98EE886B90895AF92BF92CF92DF92A8
:10026000EF92FF920F931F93CF93DF938CE0A3DF66
:1002700072DF80E487B98EE886B98FEF87BB60E0D4
:1002800080E05FDF80E690E07EDF60E088E059DFBD
:1002900085E690E078DF61E080E053DF8AE690E079
:1002A00072DF61E088E04DDF8FE690E06CDF60E0B8
:1002B00083E047DF80E0BFDF2CE2E22E21E0F22E78
:1002C000B701681B790B882777FD8095982FF9D3A4
:1002D00020E030E040E450E491D3D6D37F936F9395
:1002E00094E7A92E90E0B92EBF92AF928AE7C82E6C
:1002F00080E0D82EDF92CF9286D0C60144DF60E046
:100300008BE01FDF81E097DFB701681B790B88273F
:1003100077FD8095982FD5D320E030E040E450E47D
:100320006DD3B2D37F936F93BF92AF92DF92CF9290
:100330006AD0C60128DF61E083E003DF82E07BDF73
:10034000B701681B790B882777FD8095982FB9D363
:1003500020E030E040E450E451D396D37F936F9394
:10036000BF92AF92DF92CF924ED0C6010CDF61E018
:100370008BE0E7DE83E05FDFEC01E81AF90A002793
:10038000F7FC0095102FC801B7019BD320E030E0A7
:1003900040E450E433D378D37F936F93BF92AF920E
:1003A000DF92CF9230D0C601EEDE8DB79EB7489671
:1003B0000FB6F8949EBF0FBE8DBFCC33D10510F49D
:1003C00081E088BBCE01CC970A9710F483E088BB0C
:1003D000CE01865490400A9710F487E088BBCE0186
:1003E000805590400A9710F48FE088BBCE018A5563
:1003F00090400A9710F48FE188BBC436D1050CF405
:1004000056CF18BA54CFA0E1B0E0E8E0F2E0E1C383
:100410000F89188D86E08E831C830B838FEF9FE7F7
:1004200098878F83AE01455E5F4F5A834983698DFC
:100430007A8DCE01039609D029853A85020F131FC4
:10044000F8011082E4E06096E0C3A4E1B0E0EAE2E3
:10045000F2E0B1C3CC24DD2476011C017C8B6B8BD4
:100460002A01FC0117821682838181FD03C08FEF70
:100470009FEF75C2AA24BB245FC2A0FE45C28A8931
:1004800080538A30E8F4FA89F03341F42D85222331
:1004900029F4A3FC03C080E091E06FC08AE0ED8501
:1004A000E802C0011124FA89F80FF053FD87F7FF25
:1004B00002C02FE72D87A3FC39C23D853E8736C297
:1004C000C50188709070A3FE05C0ED85EE2311F480
:1004D000F1E0FD872A89283624F525360CF05BC02B
:1004E000233509F47FC024358CF42B32C1F12C3232
:1004F00034F42032C1F1233209F0FCC13CC03A8906
:100500003D32B1F13E3209F0F5C13AC08A898336F5
:1005100009F449C084360CF07EC0883509F0EAC180
:100520001BC0EA89E03709F4A0C0E13744F4EC3697
:1005300069F1EF3671F0E93609F0DCC16CC0FA8977
:10054000F53709F49AC0F83739F0F33709F0D2C11A
:1005500034C028E0298B91C030E1398B8EC080E116
:1005600090E0A82AB92AE0E2F0E0AE2ABF2ADEC174
:1005700020E830E00DC080E490E0A82AB92AD6C176
:10058000E8E0F0E0AE2ABF2A1D86D0C124E030E0CA
:10059000A22AB32ACBC14FE3C42E3E8531503E87F9
:1005A00083E68A8B39C1F201C080FE85F150FE8757
:1005B00022E030E0420E531E2FC1F201C080D180F4
:1005C000892B41F0FD856F2F772767FD7095C60158
:1005D000DDD117C0F60101900020E9F73197EC1941
:1005E000E98B10C0F201C080D180892B41F0FD85DC
:1005F0006F2F772767FD7095C601BDD102C0C60178
:10060000B1D1898B22E030E0420E531E3E858989AC
:10061000381B3E8701C1A2FE08C0F2018081918192
:10062000A281B38124E030E009C0F2018081918190
:10063000AA2797FDA095BA2F22E030E0420E531E64
:100640006C017D01B7FF0CC082E090E0A82AB92AB6
:10065000F094E094D094C094C11CD11CE11CF11C16
:10066000EFEBFFEFAE22BF2221C020E430E0A22A50
:10067000B32A38E73A8B80E1898BA2FE08C0F201E9
:1006800080819181A281B38124E030E007C0F20132
:1006900080819181AA27BB2722E030E0420E531EC1
:1006A0006C017D018FEC9FEFA822B92287017601B2
:1006B000FE013196F88BEF87F9896F2E7724882415
:1006C0009924C801B701A401930153D26A3024F0E0
:1006D0002A89620F615201C0605DEF85F8896193DC
:1006E000F88BEF87C801B701A401930142D27901C9
:1006F0008A01211531054105510519F7CC24DD2466
:100700007601CE010196CF84C81AC501827390701C
:10071000892B19F0FE85F150FE87A6FE09C02989B4
:10072000203111F482E001C081E03E85381B3E8714
:1007300038E0832E912C8A209B20A3FE1BC08D8540
:10074000282F332727FD30958C2D99278217930763
:1007500054F0E7EFFFEFAE22BF2228E0822E912C6B
:100760008A209B2007C0FD85FC19FD872E852F1B45
:100770002E8703C03E853C193E87C5018078917065
:10078000892B61F48E8505C0B10180E290E009D12A
:10079000812F182F11501816BCF31E87A1FE04C01C
:1007A000B1018DE290E00BC0A4FE04C0B1018BE268
:1007B00090E005C0A5FE04C0B10180E290E0F1D058
:1007C000A6FE0EC0B10180E390E0EBD089898031B4
:1007D00039F4B101EA898E2F992787FD9095E1D0F0
:1007E000B0FE0CC08E8505C0B10180E390E0D9D089
:1007F000812F182F11501816BCF31E87892861F01D
:100800002D8505C0B10180E390E0CBD0212F122FC0
:1008100011501216BCF31D8790E8692E712C6A20C6
:100820007B20A7FC0CC08E8505C0B10180E290E062
:10083000B8D0812F182F11501816BCF31E87FA89D3
:10084000F33639F4B1018C2D992787FD9095A9D005
:1008500042C02A892337A9F446015601198908C0E4
:10086000F50181915F01B101992787FD909599D09C
:100870001150B0F76401F989CF0ED11C2FEF298BED
:100880002AC03A89333519F00F8518891DC04601F1
:100890008601B98807C0F8018491B101992781D0F8
:1008A0000F5F1F4FBA94FFEFBF16A9F764012989A4
:1008B000C20ED11CF98B0FC0F80182918F01B101DA
:1008C000992787FD90956DD0CE01019608171907DD
:1008D00099F7188B0F876728A1F08E8505C0B101A5
:1008E00080E290E05ED0812F182F11501816BCF3D3
:1008F0001E8707C0B101FA898F2F992787FD909530
:1009000050D0AA24BB2412C02A89253241F43AE0EF
:10091000398B1E861D8681E0A82EB12C07C0B1013F
:10092000EA898E2F992787FD90953BD02B893C89AA
:100930002F5F3F4F3C8B2B8BF101838183FF04C0E2
:10094000EB89FC89F49103C0EB89FC89F081FA8B77
:100950002A89222309F091CDF10186819781E2E174
:10096000649645C1FC0105900020E9F780959095BB
:100970008E0F9F1F0895FC0105906150704001107B
:10098000D8F7809590958E0F9F1F0895FC016150B8
:10099000704001900110D8F7809590958E0F9F1FA1
:1009A00008950F931F93CF93DF938C01EB018B81FD
:1009B000992781FF1BC082FF0DC02E813F818C8152
:1009C0009D812817390764F4E881F9810193F9833F
:1009D000E88306C0E885F985802F0995892B31F4D5
:1009E0008E819F8101969F838E8302C00FEF1FEF40
:1009F000C801DF91CF911F910F9108958CD001D044
:100A00006FC0552359F0992369F09F575F57951B85
:100A100033F442F4903811F4915805C079C09158DC
:100A20009F3F09F4A4C0BB271124621773078407F2
:100A300030F4660F771F881FBB1F915098F311D0B9
:100A40000F920FD00F920DD0A0E826173707480756
:100A50001B0609F0A048BA2F602D7F918F910024CA
:100A60000895A0E80024621773078407B10528F0F1
:100A7000621B730B840BB1090A2A660F771F881F4C
:100A8000BB1FA69581F7089597FB51D09F3738F08B
:100A9000FEE9F91B982F872F762F6B2F05C064C0B6
:100AA0009695879577956795F150D0F73EF4909598
:100AB0008095709561957F4F8F4F9F4F0895E89473
:100AC00003C097FB0EF4F3DFB62F672F782F892F23
:100AD0009EE9002405C09A95BB0F661F771F881FEB
:100AE00011249923A1F08823B2F79F3F59F0BB0F3F
:100AF00048F421F4002011F460FF04C06F5F7F4FC1
:100B00008F4F9F4F881F9795879597F908952CC011
:100B10009FEF80EC0895052E092607FA440F551F14
:100B20005F3F79F0AA27A51708F051E04795880F95
:100B3000991F9F3F31F0BB27B91708F091E08795C7
:100B400008959F919F911124E3CF97FB880F991FE0
:100B50009F3F31F0BB27B91708F091E087950895C2
:100B60009F919F911124D4CF6627772788279927B3
:100B70000895A1E21A2EAA1BBB1BFD010DC0AA1FDE
:100B8000BB1FEE1FFF1FA217B307E407F50720F0F6
:100B9000A21BB30BE40BF50B661F771F881F991F71
:100BA0001A9469F760957095809590959B01AC01BA
:100BB000BD01CF0108952F923F924F925F926F92A5
:100BC0007F928F929F92AF92BF92CF92DF92EF92DD
:100BD000FF920F931F93CF93DF93CDB7DEB7CA1B5E
:100BE000DB0B0FB6F894DEBF0FBECDBF09942A8889
:100BF000398848885F846E847D848C849B84AA8431
:100C0000B984C884DF80EE80FD800C811B81AA81BD
:100C1000B981CE0FD11D0FB6F894DEBF0FBECDBF88
:060C2000ED010895FFCF75
:100C26005245443A00424C553A005748493A005911
:080C3600454C3A00253464002E
:00000001FF
